:100000000C9434000C943E000C943E000C943E0082
:100010000C943E000C943E000C943E000C943E0068
:100020000C943E000C943E000C943E000C943E0058
:100030000C943E000C943E000C943E000C943E0048
:100040000C943E000C943E000C943E000C943E0038
:100050000C943E000C943E000C943E000C943E0028
:100060000C943E000C943E0011241FBECFEFD8E04C
:10007000DEBFCDBF0E9477000C94B1000C9400004D
:100080008091C00087FFFCCF8091C6000895EF9259
:10009000FF920F931F93CF93DF93CDB7DEB7A09757
:1000A0000FB6F894DEBF0FBECDBF8E010F5F1F4F9E
:1000B0007801F801EE19FF09803231F00E9440000A
:1000C000F80181938F01F5CFEE0DFF1D1082C7015E
:1000D0000E948B00A0960FB6F894DEBF0FBECDBF76
:1000E000DF91CF911F910F91FF90EF90089582E0E3
:1000F0008093C00080E18093C10084E28093C200BD
:100100001092C50087E68093C4008FEF84B90E94E7
:10011000470085B9FCCFFC0188279927E8942191F5
:100120002032E9F3293010F02E30C8F32B3241F0A1
:100130002D3239F4689404C00E94A900820F911DE9
:10014000219120532A30C0F31EF4909581959F4F42
:1001500008957AE0979F902D879F802D910D11240F
:060160000895F894FFCFA2
:00000001FF
