:100000000C9434000C943E000C943E000C943E0082
:100010000C943E000C943E000C943E000C943E0068
:100020000C943E000C943E000C943E000C943E0058
:100030000C943E000C943E000C943E000C943E0048
:100040000C943E000C943E000C943E000C943E0038
:100050000C943E000C943E000C943E000C943E0028
:100060000C943E000C943E0011241FBECFEFD8E04C
:10007000DEBFCDBF0E946C000C94D9010C9400002F
:100080009B01AC01E0E8F0E0808180618083E1E8E1
:10009000F0E080818960808360E074E284E79AE424
:1000A0000E94F40020E030E040E85FE30E948F000F
:1000B0000E945C0170938B0060938A002FE986E8B0
:1000C00091E0215080409040E1F700C00000109284
:1000D00080001092810008958FEF84B984E085B983
:1000E000C4E0C5B944EF51E060E070E084EC93E413
:1000F0000E94400087EA91E60197F1F700C00000F6
:1001000044EF51E060E070E084EC93E40E94400032
:1001100087EA91E60197F1F700C00000E2CF50585E
:10012000BB27AA270ED00BC1FCD030F001D120F0A4
:1001300031F49F3F11F41EF4F1C00EF4E095E7FB9B
:10014000E7C0E92F0DD180F3BA1762077307840760
:10015000950718F071F49EF525C10EF4E0950B2E6D
:10016000BA2FA02D0B01B90190010C01CA01A00109
:100170001124FF27591B99F0593F50F4503E68F164
:100180001A16F040A22F232F342F4427585FF3CFA5
:10019000469537952795A795F0405395C9F77EF476
:1001A0001F16BA0B620B730B840BBAF09150A1F0BF
:1001B000FF0FBB1F661F771F881FC2F70EC0BA0F45
:1001C000621F731F841F48F4879577956795B795CD
:1001D000F7959E3F08F0B3CF9395880F08F09927C5
:1001E000EE0F9795879508950CD0A9C0A1D040F047
:1001F00098D030F021F45F3F19F08AC05111D3C07C
:100200008DC0AED098F39923C9F35523B1F3951B54
:10021000550BBB27AA2762177307840738F09F5F27
:100220005F4F220F331F441FAA1FA9F333D00E2E96
:100230003AF0E0E830D091505040E695001CCAF703
:1002400029D0FE2F27D0660F771F881FBB1F2617C8
:1002500037074807AB07B0E809F0BB0B802DBF019B
:10026000FF2793585F4F2AF09E3F510568F050C01A
:100270009AC05F3FECF3983EDCF3869577956795DF
:10028000B795F7959F5FC9F7880F911D969587954C
:1002900097F90895E1E0660F771F881FBB1F62176B
:1002A00073078407BA0720F0621B730B840BBA0B29
:1002B000EE1F88F7E09508955BD088F09F5790F087
:1002C000B92F9927B751A0F0D1F0660F771F881F7B
:1002D000991F1AF0BA95C9F712C0B13081F062D0F7
:1002E000B1E008955FC0672F782F8827B85F39F095
:1002F000B93FCCF3869577956795B395D9F73EF4DA
:1003000090958095709561957F4F8F4F9F4F089581
:1003100097F99F6780E870E060E008959FEF80ECB8
:10032000089500240A94161617061806090608955B
:1003300000240A9412161306140605060895092EC1
:100340000394000C11F4882352F0BB0F40F4BF2B30
:1003500011F460FF04C06F5F7F4F8F4F9F4F089570
:1003600057FD9058440F551F59F05F3F71F0479566
:10037000880F97FB991F61F09F3F79F0879508954B
:10038000121613061406551FF2CF4695F1DF08C06A
:10039000161617061806991FF1CF86957105610587
:1003A00008940895E894BB2766277727CB0197F92F
:0603B0000895F894FFCF50
:00000001FF
