:100000000C9434000C9446000C9448000C94460068
:100010000C9446000C9446000C9446000C94460048
:100020000C9446000C9446000C9446000C94460038
:100030000C9446000C9446000C9446000C94460028
:100040000C9446000C9446000C9446000C94460018
:100050000C9446000C9446000C9446000C94460008
:100060000C9446000C94460011241FBECFEFD8E03C
:10007000DEBFCDBF11E0A0E0B1E001C01D92A13014
:10008000B107E1F70E946A000C947B000C94000019
:100090001F920F920FB60F9211248F939F9381E0BE
:1000A00090E00090000102C0880F991F0A94E2F7C7
:1000B00085B9809100018F5F843019F08093000131
:1000C00002C0109200019F918F910F900FBE0F9070
:1000D0001F9018958FEF84B91092000188E08093EB
:1000E000690082E08DBB789483ED90E30197F1F78E
:0A00F00000C00000FFCFF894FFCF1E
:00000001FF
