:100000000C9434000C943E000C943E000C943E0082
:100010000C943E000C943E000C943E000C943E0068
:100020000C943E000C943E000C943E000C943E0058
:100030000C943E000C943E000C943E000C943E0048
:100040000C943E000C943E000C943E000C943E0038
:100050000C943E000C943E000C943E000C943E0028
:100060000C943E000C943E0011241FBECFEFD8E04C
:10007000DEBFCDBF0E9472000C94AE000C94000055
:100080008091C00087FFFCCF8091C6000895FF9249
:100090000F931F93CF93DF93CDB7DEB7A1970FB622
:1000A000F894DEBF0FBECDBF8E010F5F1F4FF02E45
:1000B000912F803241F099A30E944000F801819372
:1000C0008F0199A1F6CF8F2D0E948800A1960FB6BF
:1000D000F894DEBF0FBECDBFDF91CF911F910F917E
:1000E000FF90089582E08093C00080E18093C1007A
:1000F00084E28093C2001092C5008FEC8093C4000C
:100100008FEF84B90E94470085B980E090E00895A0
:10011000FC0188279927E89421912032E9F32930BE
:1001200010F02E30C8F32B3241F02D3239F46894A0
:1001300004C00E94A600820F911D219120532A30F5
:10014000C0F31EF4909581959F4F08957AE0979F94
:10015000902D879F802D910D11240895F894FFCF45
:00000001FF
