:100000000C9434000C943E000C943E000C943E0082
:100010000C943E000C943E000C943E000C943E0068
:100020000C943E000C943E000C943E000C943E0058
:100030000C943E000C943E000C943E000C943E0048
:100040000C943E000C943E000C943E000C943E0038
:100050000C943E000C943E000C943E000C943E0028
:100060000C943E000C943E0011241FBECFEFD8E04C
:10007000DEBFCDBF0E944E000C947B000C940000AC
:1000800080917A00806580937A0080917A0084FF65
:10009000FCCF8091780090917900089582E084B936
:1000A00080917C00806480937C0080917A008660DF
:1000B00080937A0080917A00806880937A008091A2
:1000C0007C008D7F80937C000E944000EC01809139
:1000D0007C00826080937C000E944000C817D90792
:1000E00010F4299A01C0299883E294EF0197F1F75F
:0A00F00000C00000E4CFF894FFCF39
:00000001FF
