:100000000C9434000C9446000C9446000C9446006A
:100010000C9446000C9446000C9446000C94460048
:100020000C9446000C9446000C9446000C94460038
:100030000C9446000C9446000C9446000C94460028
:100040000C9448000C9446000C9446000C94460016
:100050000C9446000C9446000C9446000C94460008
:100060000C9446000C94460011241FBECFEFD8E03C
:10007000DEBFCDBF11E0A0E0B1E001C01D92A23013
:10008000B107E1F70E9489000C9499000C940000DC
:100090001F920F920FB60F9211248F939F9380910E
:1000A00001018F5F8D3119F08093010118C010920A
:1000B00001018091000181110AC089E190E09093D3
:1000C00089008093880081E08093000108C08CE063
:1000D00090E09093890080938800109200019F9196
:1000E0008F910F900FBE0F901F90189514BC85B57F
:1000F000856085BDEEE6F0E08081816080830895B3
:1001000081E880938000E1E8F0E080818560808371
:1001100008950E9476000E94800078941092010158
:10012000109200018CE090E0909389008093880009
:06013000FFCFF894FFCFA1
:00000001FF
